:1000000003308A00E12B00000A108A100A118207CF
:1000100028340C34013406340C22E939F430EE3142
:10002000E930200525267510E336000033308400C2
:1000300083130008031929280630F800F701F70B8D
:100040001F28F80B1E287B30F700F70B2528800BA4
:100050001C2808003A182E2886112F28861583168A
:1000600086118312BA183628061237280616831608
:10007000061283123A193E2886123F2886168316E6
:1000800086128312BA1946280613472806178316C4
:10009000061300000611831206150330F700F70B54
:1000A0004F2883160611831206110800BB01831620
:1000B00006118312061500008316861583123B1065
:1000C00086193B14831606168312BB10061ABB143E
:1000D0008316861683123B11861A3B158316061764
:1000E0008312BB11061BBB15831606118312061162
:1000F0003B08F800080083160610831206108316CA
:10010000861083128614000056207808BA00562004
:100110007808B9003A0EF700F030F705770839048F
:10012000F8007808B900B91B7F28B70803199D2883
:100130008316061083120614A12883160610831254
:1001400006100000831686108312861000008316A6
:10015000061183120611380EB9000F30B90539089F
:10016000BA002A2038080F39B900BA002A2008003E
:1001700083160610831206108316861083128610CB
:1001800083160611831206110F30B3001620A90141
:100190002908023C031CD4280330BA002A20053069
:1001A000B3001620A90AC8280230BA002A20A901E3
:1001B0002908033C031CE52829080420AA00B701EC
:1001C0002A08B8007B20A90AD8288A110A12F82B1D
:1001D0000330AA02031CF6282A3084008313000887
:1001E0000319F628F428F428800BF3288A110A1240
:1001F0000E2C8E30F7002A08F8002908F900FA01C1
:10020000F808031D0D297908F800F9010830F702F4
:10021000F808031D0D29F70115290310F81B1429EF
:10022000F90DF80DF7030D29F81308002908031933
:100230008629B1002D0803198629B107031827293B
:100240007F30B102031C8629031986292B298130AE
:10025000B107031886293108F700F801F901FA01FE
:100260002A08B500B5172B08B4002C08B3001830C5
:10027000B100B201331C54293008FA07031C462987
:10028000F90A031D4629F80A0319B2172F08F907BE
:10029000031C4D29F80A0319B2172E08AB00AB173F
:1002A0002B08F8070318B217B20DF80CF90CFA0C6A
:1002B000B50CB40CB30C0310B10B39290130F7079E
:1002C00003188629F81B6B29B50DFA0DF90DF80DE9
:1002D000F70303198629B51F7C29FA0A031D7C2917
:1002E000F90A031D7C29F80A031D7C29F80CF90C76
:1002F000FA0CF70A031986292A08B2002E08B2065A
:10030000B21F8429F8178A29F8138A29F701F801FE
:10031000F901FA01080080308318B206B701B8016C
:100320002E08B6003208B6062D0803197B2AB50040
:10033000F70031080319842AB5020319202A031C87
:10034000DE293208BB00BB173308BA003408B900F5
:10035000B8010310BB0CBA0CB90CB80CB50BA8292A
:10036000B61FB5293714982A371035103716303094
:1003700084008313AD2A3712B61BC829351CD32934
:10038000BB0CBA0CB90CB80CF70A0319932AD32981
:10039000BB1BD6290310B80DB90DBA0DBB0DF70361
:1003A0000319932AC8293717402A37132E08B60095
:1003B000B61FDC29BB178C2ABB138C2A3108B50069
:1003C000F7002D08B5022E08BB00BB172F08BA0096
:1003D0003008B900B8010310BB0CBA0CB90CB80C4A
:1003E000B50BEA29B61FF729B714982AB7103510AC
:1003F000B716343084008313AD2AB712B61B0A2A0D
:10040000351C152ABB0CBA0CB90CB80CF70A031929
:10041000932A152ABB1B182A0310B80DB90DBA0D63
:10042000BB0DF7030319932A0A2AB717402AB713FB
:100430003208B600B61F1E2ABB178C2ABB138C2AA3
:100440003208BB00BB173308BA003408B900B61F26
:100450002D2ABB133715982A3711B80135103030C3
:1004600084008313AD2AB61B562A2E08B600351C0D
:10047000402ABB0CBA0CB90CB80CF70A0319932A22
:10048000B81F512AB90A031D512ABA0A031D512A5D
:10049000BB0A031D512ABB0CBA0CB90CF70A03198D
:1004A000932A371BD529B71B172A752A8030BB061C
:1004B000BB1F5E2A982A3208B6006B2A2E08B600A7
:1004C000BB08031D6B2ABA08031D6B2AB908031D5C
:1004D0006B2AF7018C2ABB1B752A0310B80DB90DC6
:1004E000BA0DBB0DF70B6B2A932AB61F792ABB17DF
:1004F0008C2ABB138C2A3108F7003208BB00330862
:10050000BA003408B9008C2A2D08F7002E08BB0069
:100510002F08BA003008B9003B08F8003A08F90083
:100520003908FA00CB2AF701F801F901FA01CB2AC0
:10053000B801B909BA09BB09B809B80A031DA62A46
:10054000B90A031DA62ABA0A0319BB0A3718B42927
:10055000B718F62937192C2A5B2A0008B907031C9B
:10056000B72ABA0A031DB72ABB0A03193514840334
:100570000008BA07031CBF2ABB0A031935148403F9
:100580000008801F803ABB0703183514371ABB29AF
:10059000B71AFD29332A8A110A127C2C8E30F700F3
:1005A0002908F7022A08F9002B08F800F917F708BC
:1005B0000319E52A0310F908031DE12AF8080319B5
:1005C000E52AF90CF80CF70BDA2AAA1FEC2AF8092D
:1005D000F909F80A0319F90A8A110A12852C320856
:1005E0000C3A0319FA2A063A0319022B023A0319A4
:1005F000182B1D2BB7010130B8007B200230B3004F
:100600001620222B0130B3000230B400340B092B2A
:100610000C2B4030B5000D2BB50101303302B5076E
:1006200035088038B600B7013608B8007B20222B89
:10063000B7011030B8007B20222B0130B700320800
:10064000B8007B2008000B08AA008B138316031741
:100650008C170C140000000083120313AA1B8B17C5
:1006600003185A2B03170C087F390313AA0003172A
:100670000D080313AB0003170F080313AC002A087F
:10068000B200EF222B0803178D0003132C08031769
:100690008F0003130B08AD008B13831603178C1701
:1006A0000C140000000083120313AD1B8B17A90B61
:1006B0005A2B792B03170C0D0E0D7F390313AA004B
:1006C00003170D080313AB0003170F080313AC0047
:1006D0002A08B200EF222B0803178D0003132C0801
:1006E00003178F008D0A03198F0A03100313A90B38
:1006F000232B8A110A12962CB1010408B000311084
:10070000831B31142A0EF038AC00AC07E23EAD007A
:10071000323EAF002A080F39AD07AD07AF07E93EFB
:10072000AE00AE07AE07290E0F39AE07AF07AE0D0C
:10073000AF0DAF09AF0D29080F39AF07AC0D07306A
:10074000AB000A30AF07AE03031CA22BAE07AD030C
:10075000031CA62BAD07AC03031CAA2BAC07AB03F1
:10076000031CAE2B2B30840083130730300530136D
:1007700084072F300402031930170008F700031D07
:10078000C92B301BC92B301ADB2BB019C92B2030D9
:10079000CC2BB01530123030F707AA010408A9009D
:1007A0002A10831B2A147708B200EF22290884003C
:1007B00083132A188317840A301FB92B8A110A124F
:1007C0009D2C03081F398300FF30A80083161F14D7
:1007D0009F141F159F1107309C008313831228104C
:1007E00028088316870083120710B5309000B828B8
:1007F000A81028088316870083128714A630F700F4
:10080000F70B002C0000A81028088316870083121D
:1008100087100230A900AE30AA00E828A90B0B2CE3
:1008200028142808831687008312071C102C8E01B9
:100830008F018E0100002814280883168700831278
:1008400007181B2C0F08FA000E08F7000F087A0291
:10085000031D222C7708A2007A08A3002308AA000F
:100860002208A900F9207A08AC007908AB007808C2
:10087000AA007708A9009A30B0009930AF0019306B
:10088000AE007E30AD0016217A08A7007908A600D8
:100890007808A5007708A4002308AA002208A90068
:1008A000F9207A08AC007908AB007808AA0077082C
:1008B000A900A630B0009B30AF004430AE007830C5
:1008C000AD0016217A08AC007908AB007808AA00C0
:1008D0007708A90083107A08B0007908AF0078087B
:1008E000AE007708AD006D30B400E730B3000B30D8
:1008F000B2007F30B1008B297A08AC007908AB00D8
:100900007808AA007708A900CE2A7908A1007808FB
:10091000A000C830B30016200C3003178D00003043
:100920008F0003100C300313A900232B1030840018
:100930002108AA002008A9007C2B2030B200EF2259
:100940006330B200EF226D30B200EF22F82B63006B
:02400E00723FFF
:00000001FF
;PIC16F877A
;CRC=27A2  CREATED="30-ago.-23 11:21"
